{
  "address": "0x67d87837504C5f271ef0561CBC80bE08114E127C",
  "abi": [
    {
      "inputs": [
        {
          "internalType": "uint256",
          "name": "_index",
          "type": "uint256"
        }
      ],
      "name": "buyProduct",
      "outputs": [],
      "stateMutability": "payable",
      "type": "function"
    },
    {
      "inputs": [],
      "name": "getProductsLength",
      "outputs": [
        {
          "internalType": "uint256",
          "name": "",
          "type": "uint256"
        }
      ],
      "stateMutability": "view",
      "type": "function"
    },
    {
      "inputs": [
        {
          "internalType": "uint256",
          "name": "_index",
          "type": "uint256"
        }
      ],
      "name": "readProduct",
      "outputs": [
        {
          "internalType": "address payable",
          "name": "",
          "type": "address"
        },
        {
          "internalType": "string",
          "name": "",
          "type": "string"
        },
        {
          "internalType": "string",
          "name": "",
          "type": "string"
        },
        {
          "internalType": "string",
          "name": "",
          "type": "string"
        },
        {
          "internalType": "string",
          "name": "",
          "type": "string"
        },
        {
          "internalType": "uint256",
          "name": "",
          "type": "uint256"
        },
        {
          "internalType": "uint256",
          "name": "",
          "type": "uint256"
        }
      ],
      "stateMutability": "view",
      "type": "function"
    },
    {
      "inputs": [
        {
          "internalType": "string",
          "name": "_name",
          "type": "string"
        },
        {
          "internalType": "string",
          "name": "_image",
          "type": "string"
        },
        {
          "internalType": "string",
          "name": "_description",
          "type": "string"
        },
        {
          "internalType": "string",
          "name": "_location",
          "type": "string"
        },
        {
          "internalType": "uint256",
          "name": "_price",
          "type": "uint256"
        }
      ],
      "name": "writeProduct",
      "outputs": [],
      "stateMutability": "nonpayable",
      "type": "function"
    }
  ],
  "transactionHash": "0x5a9b51dcb17a8cbd66de7ec8a062fb5d65f4139c0751fef5ef2c21f9ceedb22b",
  "args": [],
  "numDeployments": 1,
  "solcInputHash": "c61272093650503e7cb6626bac486992",
  "bytecode": "0x60806040526000805573874069fa1eb16d44d622f2e0ca25eea172369bc1600160006101000a81548173ffffffffffffffffffffffffffffffffffffffff021916908373ffffffffffffffffffffffffffffffffffffffff16021790555034801561006957600080fd5b50610fc7806100796000396000f3fe60806040526004361061003f5760003560e01c80631155dfe5146100445780638642269e1461006f5780638da8f27b1461008b578063fffa7e2e146100b4575b600080fd5b34801561005057600080fd5b506100596100f7565b60405161006691906106ba565b60405180910390f35b61008960048036038101906100849190610715565b610100565b005b34801561009757600080fd5b506100b260048036038101906100ad9190610888565b61025c565b005b3480156100c057600080fd5b506100db60048036038101906100d69190610715565b610390565b6040516100ee9796959493929190610a33565b60405180910390f35b60008054905090565b600160009054906101000a900473ffffffffffffffffffffffffffffffffffffffff1673ffffffffffffffffffffffffffffffffffffffff166323b872dd336002600085815260200190815260200160002060000160009054906101000a900473ffffffffffffffffffffffffffffffffffffffff1660026000868152602001908152602001600020600501546040518463ffffffff1660e01b81526004016101ab93929190610b3e565b6020604051808303816000875af11580156101ca573d6000803e3d6000fd5b505050506040513d601f19601f820116820180604052508101906101ee9190610bad565b61022d576040517f08c379a000000000000000000000000000000000000000000000000000000000815260040161022490610c26565b60405180910390fd5b60026000828152602001908152602001600020600601600081548092919061025490610c75565b919050555050565b60006040518060e001604052803373ffffffffffffffffffffffffffffffffffffffff16815260200187815260200186815260200185815260200184815260200183815260200182815250600260008054815260200190815260200160002060008201518160000160006101000a81548173ffffffffffffffffffffffffffffffffffffffff021916908373ffffffffffffffffffffffffffffffffffffffff16021790555060208201518160010190816103179190610ebf565b50604082015181600201908161032d9190610ebf565b5060608201518160030190816103439190610ebf565b5060808201518160040190816103599190610ebf565b5060a0820151816005015560c0820151816006015590505060008081548092919061038390610c75565b9190505550505050505050565b60006060806060806000806002600089815260200190815260200160002060000160009054906101000a900473ffffffffffffffffffffffffffffffffffffffff16600260008a8152602001908152602001600020600101600260008b8152602001908152602001600020600201600260008c8152602001908152602001600020600301600260008d8152602001908152602001600020600401600260008e815260200190815260200160002060050154600260008f81526020019081526020016000206006015485805461046490610cec565b80601f016020809104026020016040519081016040528092919081815260200182805461049090610cec565b80156104dd5780601f106104b2576101008083540402835291602001916104dd565b820191906000526020600020905b8154815290600101906020018083116104c057829003601f168201915b505050505095508480546104f090610cec565b80601f016020809104026020016040519081016040528092919081815260200182805461051c90610cec565b80156105695780601f1061053e57610100808354040283529160200191610569565b820191906000526020600020905b81548152906001019060200180831161054c57829003601f168201915b5050505050945083805461057c90610cec565b80601f01602080910402602001604051908101604052809291908181526020018280546105a890610cec565b80156105f55780601f106105ca576101008083540402835291602001916105f5565b820191906000526020600020905b8154815290600101906020018083116105d857829003601f168201915b5050505050935082805461060890610cec565b80601f016020809104026020016040519081016040528092919081815260200182805461063490610cec565b80156106815780601f1061065657610100808354040283529160200191610681565b820191906000526020600020905b81548152906001019060200180831161066457829003601f168201915b505050505092509650965096509650965096509650919395979092949650565b6000819050919050565b6106b4816106a1565b82525050565b60006020820190506106cf60008301846106ab565b92915050565b6000604051905090565b600080fd5b600080fd5b6106f2816106a1565b81146106fd57600080fd5b50565b60008135905061070f816106e9565b92915050565b60006020828403121561072b5761072a6106df565b5b600061073984828501610700565b91505092915050565b600080fd5b600080fd5b6000601f19601f8301169050919050565b7f4e487b7100000000000000000000000000000000000000000000000000000000600052604160045260246000fd5b6107958261074c565b810181811067ffffffffffffffff821117156107b4576107b361075d565b5b80604052505050565b60006107c76106d5565b90506107d3828261078c565b919050565b600067ffffffffffffffff8211156107f3576107f261075d565b5b6107fc8261074c565b9050602081019050919050565b82818337600083830152505050565b600061082b610826846107d8565b6107bd565b90508281526020810184848401111561084757610846610747565b5b610852848285610809565b509392505050565b600082601f83011261086f5761086e610742565b5b813561087f848260208601610818565b91505092915050565b600080600080600060a086880312156108a4576108a36106df565b5b600086013567ffffffffffffffff8111156108c2576108c16106e4565b5b6108ce8882890161085a565b955050602086013567ffffffffffffffff8111156108ef576108ee6106e4565b5b6108fb8882890161085a565b945050604086013567ffffffffffffffff81111561091c5761091b6106e4565b5b6109288882890161085a565b935050606086013567ffffffffffffffff811115610949576109486106e4565b5b6109558882890161085a565b925050608061096688828901610700565b9150509295509295909350565b600073ffffffffffffffffffffffffffffffffffffffff82169050919050565b600061099e82610973565b9050919050565b6109ae81610993565b82525050565b600081519050919050565b600082825260208201905092915050565b60005b838110156109ee5780820151818401526020810190506109d3565b60008484015250505050565b6000610a05826109b4565b610a0f81856109bf565b9350610a1f8185602086016109d0565b610a288161074c565b840191505092915050565b600060e082019050610a48600083018a6109a5565b8181036020830152610a5a81896109fa565b90508181036040830152610a6e81886109fa565b90508181036060830152610a8281876109fa565b90508181036080830152610a9681866109fa565b9050610aa560a08301856106ab565b610ab260c08301846106ab565b98975050505050505050565b6000610ac982610973565b9050919050565b610ad981610abe565b82525050565b6000819050919050565b6000610b04610aff610afa84610973565b610adf565b610973565b9050919050565b6000610b1682610ae9565b9050919050565b6000610b2882610b0b565b9050919050565b610b3881610b1d565b82525050565b6000606082019050610b536000830186610ad0565b610b606020830185610b2f565b610b6d60408301846106ab565b949350505050565b60008115159050919050565b610b8a81610b75565b8114610b9557600080fd5b50565b600081519050610ba781610b81565b92915050565b600060208284031215610bc357610bc26106df565b5b6000610bd184828501610b98565b91505092915050565b7f5472616e73666572206661696c65642e00000000000000000000000000000000600082015250565b6000610c106010836109bf565b9150610c1b82610bda565b602082019050919050565b60006020820190508181036000830152610c3f81610c03565b9050919050565b7f4e487b7100000000000000000000000000000000000000000000000000000000600052601160045260246000fd5b6000610c80826106a1565b91507fffffffffffffffffffffffffffffffffffffffffffffffffffffffffffffffff8203610cb257610cb1610c46565b5b600182019050919050565b7f4e487b7100000000000000000000000000000000000000000000000000000000600052602260045260246000fd5b60006002820490506001821680610d0457607f821691505b602082108103610d1757610d16610cbd565b5b50919050565b60008190508160005260206000209050919050565b60006020601f8301049050919050565b600082821b905092915050565b600060088302610d7f7fffffffffffffffffffffffffffffffffffffffffffffffffffffffffffffffff82610d42565b610d898683610d42565b95508019841693508086168417925050509392505050565b6000610dbc610db7610db2846106a1565b610adf565b6106a1565b9050919050565b6000819050919050565b610dd683610da1565b610dea610de282610dc3565b848454610d4f565b825550505050565b600090565b610dff610df2565b610e0a818484610dcd565b505050565b5b81811015610e2e57610e23600082610df7565b600181019050610e10565b5050565b601f821115610e7357610e4481610d1d565b610e4d84610d32565b81016020851015610e5c578190505b610e70610e6885610d32565b830182610e0f565b50505b505050565b600082821c905092915050565b6000610e9660001984600802610e78565b1980831691505092915050565b6000610eaf8383610e85565b9150826002028217905092915050565b610ec8826109b4565b67ffffffffffffffff811115610ee157610ee061075d565b5b610eeb8254610cec565b610ef6828285610e32565b600060209050601f831160018114610f295760008415610f17578287015190505b610f218582610ea3565b865550610f89565b601f198416610f3786610d1d565b60005b82811015610f5f57848901518255600182019150602085019450602081019050610f3a565b86831015610f7c5784890151610f78601f891682610e85565b8355505b6001600288020188555050505b50505050505056fea264697066735822122012de6446fc262186277d98c8d47bc3934c2ab3b79c4da30e4c2b903148b9da9064736f6c63430008110033",
  "devdoc": {
    "kind": "dev",
    "methods": {},
    "version": 1
  },
  "userdoc": {
    "kind": "user",
    "methods": {},
    "version": 1
  },
  "storageLayout": {
    "storage": [
      {
        "astId": 71,
        "contract": "contracts/Marketplace.sol:Marketplace",
        "label": "productsLength",
        "offset": 0,
        "slot": "0",
        "type": "t_uint256"
      },
      {
        "astId": 74,
        "contract": "contracts/Marketplace.sol:Marketplace",
        "label": "cUsdTokenAddress",
        "offset": 0,
        "slot": "1",
        "type": "t_address"
      },
      {
        "astId": 94,
        "contract": "contracts/Marketplace.sol:Marketplace",
        "label": "products",
        "offset": 0,
        "slot": "2",
        "type": "t_mapping(t_uint256,t_struct(Product)89_storage)"
      }
    ],
    "types": {
      "t_address": {
        "encoding": "inplace",
        "label": "address",
        "numberOfBytes": "20"
      },
      "t_address_payable": {
        "encoding": "inplace",
        "label": "address payable",
        "numberOfBytes": "20"
      },
      "t_mapping(t_uint256,t_struct(Product)89_storage)": {
        "encoding": "mapping",
        "key": "t_uint256",
        "label": "mapping(uint256 => struct Marketplace.Product)",
        "numberOfBytes": "32",
        "value": "t_struct(Product)89_storage"
      },
      "t_string_storage": {
        "encoding": "bytes",
        "label": "string",
        "numberOfBytes": "32"
      },
      "t_struct(Product)89_storage": {
        "encoding": "inplace",
        "label": "struct Marketplace.Product",
        "members": [
          {
            "astId": 76,
            "contract": "contracts/Marketplace.sol:Marketplace",
            "label": "owner",
            "offset": 0,
            "slot": "0",
            "type": "t_address_payable"
          },
          {
            "astId": 78,
            "contract": "contracts/Marketplace.sol:Marketplace",
            "label": "name",
            "offset": 0,
            "slot": "1",
            "type": "t_string_storage"
          },
          {
            "astId": 80,
            "contract": "contracts/Marketplace.sol:Marketplace",
            "label": "image",
            "offset": 0,
            "slot": "2",
            "type": "t_string_storage"
          },
          {
            "astId": 82,
            "contract": "contracts/Marketplace.sol:Marketplace",
            "label": "description",
            "offset": 0,
            "slot": "3",
            "type": "t_string_storage"
          },
          {
            "astId": 84,
            "contract": "contracts/Marketplace.sol:Marketplace",
            "label": "location",
            "offset": 0,
            "slot": "4",
            "type": "t_string_storage"
          },
          {
            "astId": 86,
            "contract": "contracts/Marketplace.sol:Marketplace",
            "label": "price",
            "offset": 0,
            "slot": "5",
            "type": "t_uint256"
          },
          {
            "astId": 88,
            "contract": "contracts/Marketplace.sol:Marketplace",
            "label": "sold",
            "offset": 0,
            "slot": "6",
            "type": "t_uint256"
          }
        ],
        "numberOfBytes": "224"
      },
      "t_uint256": {
        "encoding": "inplace",
        "label": "uint256",
        "numberOfBytes": "32"
      }
    }
  }
}